:10000000ACC084CBC5C0C4C0C3C0C2C0C1C0C0C026
:10001000BFC0BEC0F1CABCC0BBC0BAC0B9C0EEEE62
:10002000EEEEEE888E8E8E8E8E8880EEEEEEEEEE0A
:10003000888E8E8E8E888E80EEEEEEEEEE8E888E20
:100040008E8E8E8880EEEEEEEEEE8E888E8E8E8810
:100050008E80EEEEEEEEEE8E8E888E8E8E8880EEA8
:10006000EEEEEEEE8E8E888E8E888E80EEEEEEEECA
:10007000EE8E8E8E888E8E8880EEEEEEEEEE8E8E7A
:100080008E888E888E80EEEEEEEEEE8E8E8E8E88D0
:100090008E8880EEEEEEEEEE8E8E8E8E88888E80CE
:1000A00047657374757265207265636F676E6974F6
:1000B000696F6E20415044532D39393630206368C2
:1000C000697020746573742076312E300A00496E91
:1000D000742074726967210A00536F6D65746869D2
:1000E0006E672077656E742077726F6E6720647517
:1000F00072696E6720676573747572652073656ECB
:10010000736F7220696E697421004765737475722C
:10011000652073656E736F72206E6F772072756ED7
:100120006E696E67210A00415044532D39393630CB
:1001300020696E6974206661696C6564210A0041FA
:100140005044532D3939363020696E697420636FFD
:100150006D706C657465210A000011241FBECFE527
:10016000D2E0DEBFCDBF11E0A0E6B0E0EAE9F9E100
:1001700002C005900D92A43BB107D9F722E0A4EB91
:10018000B1E001C01D92A835B207E1F77FDB03CCD7
:1001900037CF10925202109253021092CF01109258
:1001A000CE011092CD011092CC011092C00110929C
:1001B000BF011092C7011092C6011092570210920F
:1001C00056021092CB011092CA011092C9011092EE
:1001D000C8011092D1011092D00108952F923F9240
:1001E0004F925F926F927F928F929F92AF92BF9247
:1001F000CF92DF92EF92FF920F931F93CF93DF93F3
:1002000000D000D0CDB7DEB720915302253008F4DE
:1002100059C28FEF820F803208F08FC0422F50E01A
:10022000141615060CF050C2E2EDF1E082E392E004
:100230004A0194012E5C3D4F11911B3090F0DC017E
:10024000A054B1094C90AAE0A41558F4DC01909791
:100250003C90BAE0B31528F4DC012C90BAE0B2155A
:1002600028F001968217930739F730C2112309F459
:100270002FC2442009F42EC2332009F42DC22220BB
:1002800009F42CC24150510955230CF45FC0F4010C
:10029000EE52FE4F7F01C4018E509E4F6C01D4017F
:1002A000AE5EBD4F5D01F401EE5CFD4FFC83EB8360
:1002B00080E690E009D88FE690E006D8F1E0EF1AEA
:1002C000F108D7018C911FD883E790E0FDD7F601A4
:1002D00082916F0118D888E790E0F6D7F1E0AF1A65
:1002E000B108D5018C910FD88DE790E0EDD7EB8167
:1002F000FC813197FC83EB83FA83E983808103D807
:1003000083EA91E0E1D7D7019C90BAE0B91570F487
:10031000F6018080B81550F4D5017C90BAE0B7158D
:1003200028F4E981FA816080B615C8F08B819C8140
:100330008253924009F0BCCF0EC0612C712C812CED
:10034000912C212C312C412C10E009C0612C712CF6
:10035000812C912C04C0612C712C812C912C612F4B
:1003600070E0512CCB01841995099C01220F331F99
:10037000280F391FA901440F551F42955295507FF0
:100380005427407F5427240F351F820F931F640D7D
:10039000751DA7DA5B01632D70E0312CCB0182194A
:1003A00093099C01220F331F280F391FA901440F05
:1003B000551F42955295507F5427407F5427240F54
:1003C000351F820F931F620D731D8BDA8B01692D10
:1003D00070E0282D30E0CB01821B930BAC01440F61
:1003E000551F480F591FFA01EE0FFF1FE295F295B6
:1003F000F07FFE27E07FFE274E0F5F1F840F951FC3
:10040000620F731F6EDA7B01672D70E0E62DF0E05E
:10041000CB018E1B9F0B9C01220F331F280F391F0E
:10042000A901440F551F42955295507F5427407F94
:100430005427240F351F820F931F6E0F7F1F51DA31
:100440006B0182E890E040D78FE690E03DD7892DA0
:100450005AD783E790E038D7882D55D788E790E0C2
:1004600033D7872D50D78DE790E02ED7862D4BD7E9
:1004700083EA91E029D780E990E026D789E990E0E6
:1004800023D78A2D40D781EA90E01ED78E2D3BD707
:100490008AEA90E019D7802F36D783EB90E014D703
:1004A0008C2D31D783EA91E00FD7EA18FB08C01AE8
:1004B000D10A8CEB90E008D785EC90E005D78E2D23
:1004C00022D78AEC90E000D78C2D1DD783EA91E0EB
:1004D000FBD68091CE019091CF018E0D9F1D909300
:1004E000CF018093CE018091CC019091CD018C0DF4
:1004F0009D1D9093CD018093CC0180ED90E0E4D6DA
:1005000085EC90E0E1D68091CE01FDD68AEC90E0BA
:10051000DBD68091CC01F7D68091CE019091CF01AE
:10052000823391053CF081E090E09093C00180938C
:10053000BF010EC08F3C9F4F3CF48FEF9FEF909315
:10054000C0018093BF0104C01092C0011092BF018E
:100550008091CC019091CD01823391053CF081E0F6
:1005600090E09093C7018093C6010EC08F3C9F4FCF
:100570003CF48FEF9FEF9093C7018093C60104C0B6
:100580001092C7011092C6018091BF019091C001E5
:10059000892B09F04FC08091C6019091C701892B2A
:1005A00009F048C0C7014396879708F06EC0C6019E
:1005B0004396879708F069C0E114F10469F4C11407
:1005C000D10451F480915602909157020196909374
:1005D00057028093560209C08091CA019091CB01C5
:1005E00001969093CB018093CA018091560290911D
:1005F00057020A970CF449C08091CA019091CB012F
:1006000002970CF442C0EF2851F4CD2809F068C0DD
:1006100081E090E09093C9018093C80164C0CD2827
:1006200009F460C082E090E09093C9018093C80112
:1006300081E059C0C7014396879738F5C6014396B4
:10064000879718F5EF2859F4CD2849F48091560280
:100650009091570201969093570280935602809191
:100660005602909157020A9784F01092C00110929E
:10067000BF011092C7011092C6011092CF011092D3
:10068000CE011092CD011092CC0180EE90E01CD6EC
:100690008091BF0138D688EE90E016D68091C601D1
:1006A00032D681EF90E010D6809156022CD68CEF96
:1006B00090E00AD68091CA0126D686E091E004D661
:1006C00080E011C080E00FC080E00DC080E00BC072
:1006D00080E009C080E007C080E005C080E003C082
:1006E00081E001C081E00F900F900F900F90DF919B
:1006F000CF911F910F91FF90EF90DF90CF90BF901F
:10070000AF909F908F907F906F905F904F903F90B1
:100710002F9008958091C8019091C9018130910571
:1007200041F485E090E09093D1018093D00181E085
:100730000895029741F486E090E09093D101809370
:10074000D00181E008958091BF019091C0018F3F59
:100750002FEF920771F42091C6013091C701232B2E
:10076000B1F583E090E09093D1018093D00181E0D6
:1007700008958130910579F42091C6013091C70127
:10078000232B09F054C084E090E09093D101809332
:10079000D00181E008950097D1F42091C6013091F5
:1007A000C7012130310541F482E090E09093D101FE
:1007B0008093D00181E008952F3F3F4F09F065C03D
:1007C00081E090E09093D1018093D00108958F3F14
:1007D0002FEF920761F58091C6019091C7010197B3
:1007E00009F057C02091CE013091CF0133231CF482
:1007F0003195219531098091CC019091CD019923BA
:100800001CF49195819591098217930744F483E034
:1008100090E09093D1018093D00181E0089582E02F
:1008200090E09093D1018093D00181E008958130D0
:10083000910559F58091C6019091C701019609F083
:1008400055C02091CE013091CF0133231CF4319556
:10085000219531098091CC019091CD0199231CF40F
:100860009195819591098217930744F484E090E073
:100870009093D1018093D00181E0089581E090E0D0
:100880009093D1018093D00108958F3F2FEF92076D
:1008900059F58091C6019091C701019609F051C0A8
:1008A0002091CE013091CF0133231CF43195219555
:1008B00031098091CC019091CD0199231CF491953F
:1008C000819591098217930744F483E090E0909317
:1008D000D1018093D00181E0089581E090E0909370
:1008E000D1018093D0010895019769F58091C601E7
:1008F0009091C701019749F52091CE013091CF0128
:1009000033231CF43195219531098091CC019091CC
:10091000CD0199231CF49195819591098217930734
:1009200044F484E090E09093D1018093D00181E081
:10093000089582E090E09093D1018093D00181E00E
:10094000089580E0089580E0089580E00895CF93B1
:10095000C82FEED482E710D58C2F0ED5F1D481E0CC
:10096000CF910895CF93DF931F92CDB7DEB7698300
:100970009E012F5F3F4F41E0682F82E797D581E0CE
:100980000F90DF91CF910895682F80EAEBDF91E01F
:10099000811101C090E0892F0895682F81EAE2DF7C
:1009A00091E0811101C090E0892F0895682F89E8B6
:1009B000D9DF91E0811101C090E0892F0895682F5F
:1009C0008BE8D0DF91E0811101C090E0892F08957C
:1009D000CF93C92F682F84E8C5DF882341F06C2F9F
:1009E00085E8C0DF91E0811103C090E001C090E094
:1009F000892FCF910895CF93C92F682F86E8B2DF52
:100A0000882341F06C2F87E8ADDF91E0811103C0AE
:100A100090E001C090E0892FCF9108951F93CF936C
:100A2000DF93182FEB0193DF882339F09E0141E01B
:100A3000612F82E778D581E001C080E0DF91CF911E
:100A40001F910895CF93DF931F92CDB7DEB7BE01FC
:100A50006F5F7F4F80E8E2DF882311F0898101C05A
:100A60008FEF0F90DF91CF910895CF93DF93C82F31
:100A7000D62FE8DF8F3F49F1D170C730B8F4DD23BE
:100A800051F041E050E09A0102C0220F331FCA9595
:100A9000E2F7822B12C041E050E09A0102C0220F1F
:100AA000331FCA95E2F72095822307C0C73029F487
:100AB000DD2311F08FE701C080E0682F80E852DF6E
:100AC00091E0811103C090E001C090E0892FDF9197
:100AD000CF91089561E080E0C8DF91E0811101C00D
:100AE00090E0892F08951F93CF93DF931F92CDB786
:100AF000DEB7182FBE016F5F7F4F83EA8FDF882339
:100B000081F0612F63706295660F607E89818F79B5
:100B1000682B698383EA26DF91E0811103C090E0AE
:100B200001C090E0892F0F90DF91CF911F91089520
:100B30001F93CF93DF931F92CDB7DEB7182FBE015F
:100B40006F5F7F4F83EA6ADF882381F0612F6370D4
:100B5000660F660F660F8981877E682B698383EA3B
:100B600001DF91E0811103C090E001C090E0892F86
:100B70000F90DF91CF911F9108951F93CF93DF9333
:100B80001F92CDB7DEB7182FBE016F5F7F4F83EA8C
:100B900045DF882361F017706981687F612B698365
:100BA00083EAE0DE91E0811103C090E001C090E0B3
:100BB000892F0F90DF91CF911F9108951F93CF93AD
:100BC000DF931F92CDB7DEB7182FBE016F5F7F4F47
:100BD0008BEA24DF882371F0612F6170660F8981B1
:100BE0008D7F682B69838BEABDDE91E0811103C0A4
:100BF00090E001C090E0892F0F90DF91CF911F917D
:100C000008951F93CF93DF931F92CDB7DEB7182FB0
:100C1000BE016F5F7F4F80E901DF882379F0612F8C
:100C200063706295607F89818F7C682B698380E91E
:100C300099DE91E0811103C090E001C090E0892F1E
:100C40000F90DF91CF911F9108951F93CF93DF9362
:100C50001F92CDB7DEB7182FBE016F5F7F4F8BEAB3
:100C6000DDDE882359F0698110FB60F969838BEA26
:100C700079DE91E0811103C090E001C090E0892FFE
:100C80000F90DF91CF911F910895CF93C82F81DAF4
:100C90006FEF83E867DE882369F169E88EE862DE3A
:100CA000882351F183E0ADDF882341F1CC2329F083
:100CB00081E084DF811105C023C080E07FDF8823CD
:100CC00009F181E0C2DF8823F9F004DF8823F1F025
:100CD00061E083E0CADE8823D9F061E082E0C5DE0E
:100CE0008823C1F061E086E0C0DE91E0811113C08D
:100CF00090E011C090E00FC090E00DC090E00BC0FC
:100D000090E009C090E007C090E005C090E003C00B
:100D100090E001C090E0892FCF910895CF93DF93A9
:100D20001F92CDB7DEB7BE016F5F7F4F8FEA76DED1
:100D3000882331F0998181E090FD03C080E001C0FB
:100D40008FEF0F90DF91CF9108951F93CF93DF9393
:100D50001F92CDB7DEB7182FBE016F5F7F4F8FE8B0
:100D60005DDE882379F0612F6370660F660F8981DD
:100D7000837F682B69838FE8F5DD91E0811103C0E3
:100D800090E001C090E0892F0F90DF91CF911F91EB
:100D900008951F93CF93DF931F92CDB7DEB7182F1F
:100DA000BE016F5F7F4F8FE839DE882379F012959F
:100DB000110F110F107C69816F73612B69838FE8AC
:100DC000D1DD91E0811103C090E001C090E0892F56
:100DD0000F90DF91CF911F9108951F93CF93DF93D1
:100DE0001F92CDB7DEB7182FBE016F5F7F4F8FE820
:100DF00015DE882361F0137069816C7F612B698334
:100E00008FE8B0DD91E0811103C090E001C090E077
:100E1000892F0F90DF91CF911F910895CF93DF938A
:100E20001F92CDB7DEB73DD39E012F5F3F4F41E00C
:100E300062E982E778D38981882309F4B0C08B3ACC
:100E400019F08C3909F0ADC060E087E00EDE882330
:100E500009F4A9C06BED81E885DD882309F4A5C0FC
:100E600066EF83E87FDD882309F4A1C067E88EE898
:100E700079DD882309F49DC060E08DE973DD882366
:100E800009F499C060E08EE96DDD882309F495C00E
:100E900060E68DE867DD882309F491C080E079DFA2
:100EA000882309F48EC082E050DF882309F48BC0C8
:100EB00081E093DF882309F488C080E077DD882310
:100EC00009F485C082E37BDD882309F482C08FEFBB
:100ED0009FEF7EDD882309F47EC080E090E08BDD0B
:100EE000882309F47AC061E18CE83CDD882309F4A9
:100EF00076C061E080E936DD882309F472C060E0E5
:100F00008FE930DD882309F46EC088E23DDD882357
:100F100009F46BC08EE141DD882309F468C060E408
:100F200082EA20DD882309F464C082E0DCDD8823C6
:100F300009F461C080E0FCDD882309F45EC081E033
:100F40001CDE882309F45BC060E084EA0BDD8823A3
:100F500009F457C060E085EA05DD882309F453C031
:100F600060E087EAFFDC882309F44FC060E089EA8B
:100F7000F9DC882309F44BC069EC86EAF3DC8823AA
:100F800009F447C060E08AEAEDDC882309F443C035
:100F900080E014DE91E081113FC090E03DC090E020
:100FA0003BC090E039C090E037C090E035C090E0A1
:100FB00033C090E031C090E02FC090E02DC090E0B1
:100FC0002BC090E029C090E027C090E025C090E0C1
:100FD00023C090E021C090E01FC090E01DC090E0D1
:100FE0001BC090E019C090E017C090E015C090E0E1
:100FF00013C090E011C090E00FC090E00DC090E0F1
:101000000BC090E009C090E007C090E005C090E000
:1010100003C090E001C090E0892F0F90DF91CF9145
:1010200008959B01682F82E77ED281E090E00895C9
:101030002F923F924F925F926F927F928F929F92E8
:10104000AF92BF92CF92DF92EF92FF920F931F93D6
:10105000CF93DF93CDB7DEB7C258D1090FB6F8945E
:10106000DEBF0FBECDBF198259DE882309F4ECC064
:10107000E9DC817409F4EBC06E0122E8C20ED11CD8
:10108000412C512C6C2C7D2C342C252C0F2EF2E570
:101090008F2EF2E09F2EF02D0F2EF3E5AF2EF2E013
:1010A000BF2EF02D8BE49DE10197F1F700C0000009
:1010B000662D772D8FEAB2DC882309F4CBC0D601E8
:1010C0008C9180FFACC0BE016F5F7F4F8EEAA6DCC3
:1010D000882309F4C2C082E191E0F6D0898113D15E
:1010E00083EA91E0F1D049814423E1F250E0440FDA
:1010F000551F440F551FBE016E5F7F4F8CEF91DF70
:101100008FE191E0E1D089818823B9F0FE01329628
:101110007F01032D122DD7018D917D01F4D08BE23B
:1011200091E0D2D00F5F1F4F898190E0880F991F07
:10113000880F991F0817190774F383EA91E0C4D048
:10114000898190E0880F991F880F991F843091053D
:101150000CF4A8CF18161906CCF5F4012081D5019E
:101160000C91FE013596122F442D552D021BA12FF7
:10117000B0E09D012E523E4F79019F01235031096D
:10118000D9012C91D7012C939F0122503109D9010B
:101190002C91D70190962C93B701605C7F4F9F01F3
:1011A00021503109D9012C91DB012C93208190969B
:1011B0002C931F5F202F210F4C5F5F4F34964817F1
:1011C0005907ACF2F4011083D5012C938DE291E024
:1011D0007BD0F50180818823B9F00F2EF2EDEF2E40
:1011E000F1E0FF2EF02D042D152DD7018D917D01FD
:1011F0008AD086E790E068D00F5F1F4FF5018081AD
:1012000090E0081719078CF383EA91E05DD0E6D7E8
:10121000811180DAD4011C92F501108243CF8BE456
:101220009DE10197F1F700C0000074DA0091D00150
:101230001091D10187E391E047D08091D00163D034
:10124000A8D7802F912F0BC080E090E008C080E0ED
:1012500090E005C08FEF90E002C08FEF90E0CE5796
:10126000DF4F0FB6F894DEBF0FBECDBFDF91CF9139
:101270001F910F91FF90EF90DF90CF90BF90AF90B4
:101280009F908F907F906F905F904F903F902F90A6
:1012900008952FB7F8949AE0E8B3ED7FE8BB00001B
:1012A0000000000000000000E7E1F0E03197F1F7F6
:1012B000E8B380FDE26080FFED7FE8BB089487958E
:1012C0009A9591F72FBF0895CF93DF93EC01888112
:1012D000882329F02196DDDF89918111FCCFDF91F0
:1012E000CF910895CF93DF93EC012196FC01849177
:1012F000882331F0CEDFFE01849121968111FACF4F
:10130000DF91CF910895CF93DF9300D01F92CDB797
:10131000DEB74AE0BE016F5F7F4F90E009D3CE0198
:101320000196D2DF0F900F900F90DF91CF9108952B
:10133000C49800000000000000000000C398089559
:10134000000000000000000000000000000000009D
:1013500000000000C39A0000000000000000000030
:10136000C49A00000000000000000000000000001F
:10137000000000000000089527E030E090E0AC019C
:10138000022E02C0559547950A94E2F740FF02C02D
:10139000C49A01C0C49800000000000000000000D2
:1013A00000000000000000000000C39A00000000E0
:1013B000000000000000000000000000000000002D
:1013C000C39821503109D8F6C49ABC980000000097
:1013D000000000000000000000000000000000000D
:1013E000C39A86B300000000000000000000000067
:1013F0000000000000000000C398BC9A000000003C
:1014000000000000000000000000000000000000DC
:1014100082958F7091E08927817090E00895C49A39
:10142000BC9828E030E040E0000000000000000030
:10143000000000000000000000000000C39A440FFC
:10144000B4994160000000000000000000000000AE
:101450000000000000000000C39821503109211550
:10146000310511F7BC9A892B11F0C49A01C0C498B8
:10147000000000000000000000000000000000006C
:1014800000000000C39A00000000000000000000FF
:1014900000000000000000000000C398C49A842FE0
:1014A0000895BC9ABB9AC49AC39A0895FF920F9369
:1014B0001F93CF93DF93C62F142FF22E032FC498C0
:1014C00000000000000000000000C39855DF8C2FD2
:1014D00053DF112331F0CF2DD02F89914DDF1150E3
:1014E000E1F7C498000000000000000000000000C8
:1014F0000000000000000000C39A0000000000008F
:1015000000000000C49A000000000000000000007D
:1015100000000000000000000000DF91CF911F914B
:101520000F91FF900895CF92DF92EF92FF920F9369
:101530001F93CF93DF93C82FD62FE22EF32E042FC5
:1015400010E0C49800000000000000000000C398F4
:1015500013DF8D2F11DF00000000000000000000ED
:1015600000000000000000000000C39AC4980000C2
:101570000000000000000000C3988C2F8160FCDE9A
:10158000E8012197012B99F00E2D1F2DEE24E394F5
:10159000F12CC12CD12C8E2D9F2D209711F08C2D4C
:1015A0009D2D3DDFF80181938F012197A0F7C4980D
:1015B000000000000000000000000000000000002B
:1015C00000000000C39A00000000000000000000BE
:1015D000C49A0000000000000000000000000000AD
:1015E000000000000000DF91CF911F910F91FF904C
:1015F000EF90DF90CF9008951F920F920FB60F9249
:1016000011242F938F939F93EF93FF938091B701B2
:101610008D30C8F58091B801883068F58091B601A9
:101620002091B70190E0FC01EE0FFF1FE80FF91FBA
:10163000EE0FFF1FEE0FFF1FE80FF91FE20FF11D66
:10164000E25EFF4F84912091B80190E002C0880FC4
:10165000991F2A95E2F7881F8827881F813011F487
:10166000C09A03C0811101C0C0988091B8018F5FFA
:101670008093B80110C01092B8018091B7018F5FBC
:101680008093B70108C01092B70181E08093B50143
:1016900083B78E7F83BFFF91EF919F918F912F91A1
:1016A0000F900FBE0F901F9018958AB582608ABD6B
:1016B00089B7806189BF86EA89BD83B7816083BFAE
:1016C0007894B89AC09A81E08093B4010895CF933A
:1016D000C82F8091B401811101C0E7DFC093B6012A
:1016E00085E090E023B7216023BF2091B50122233C
:1016F000E1F31092B501E6EAF3E03197F1F700C0AB
:1017000000000197009771F7CF9108951F920F92F3
:101710000FB60F9211248F9381E08093BE018F91B9
:101720000F900FBE0F901F901895B99A08958BB720
:1017300080648BBF85B7826085BF789408951092CE
:10174000BD011092BC011092BB011092BA0110921F
:10175000B90181E090E0BBDF83E090E0B8DF85E095
:1017600090E0B5DF87E090E0B2DF89E090E0AFDFA6
:101770000895811104C08BB780648BBF08958BB727
:101780008F7B8BBF089580EA90E0ACDD0895C6DAC8
:10179000882309F47AC04CDC8430910541F144F48B
:1017A0008230910509F44BC074F40197A1F16AC02D
:1017B0008630910509F45BC00CF455C08F3F91054C
:1017C00009F45CC05FC08DE391E07EDD8091BD01D6
:1017D000882331F081E491E077DD1092BD01089516
:1017E00088E491E071DD81E08093BD0108958EE48D
:1017F00091E06ADD8091BB01882331F084E591E0BE
:1018000063DD1092BB0108958BE591E05DDD81E021
:101810008093BB01089581E691E056DD8091BA0185
:10182000882331F088E691E04FDD1092BA010895E7
:101830008FE691E049DD81E08093BA01089585E764
:1018400091E042DD8091BC01882331F08CE791E08A
:101850003BDD1092BC01089583E891E035DD81E025
:101860008093BC01089589E891E02EDD08958FE80A
:1018700091E02ADD84E991E027DD08958DE991E08A
:1018800023DD089585EA91E01FDD08954EDFC19ABA
:10189000B99A0BDF54DF77DF4ADFC0DA882321F003
:1018A0008FE391E01FDD03C087E291E01BDD81E063
:1018B000ECD9882321F08AE091E014DD03C089EDA2
:1018C00090E010DD8091BE018823E1F381E051DFDB
:1018D0008EEC90E007DD5BDF1092BE0180E049DF17
:1018E000F1CF97FB072E16F4009406D077FD08D0B1
:1018F0000BD007FC05D03EF4909581959F4F08953D
:10190000709561957F4F0895AA1BBB1B51E107C0DD
:10191000AA1FBB1FA617B70710F0A61BB70B881F7F
:10192000991F5A95A9F780959095BC01CD0108950E
:10193000BB274A3031F4992322F4BDE2909581957A
:101940009F4F01C0BB27FB015527AA27880F991F6E
:10195000AA1FA41710F0A41B83955051B9F7A05DDE
:10196000AA3308F0A95DA193009779F7B111B1935B
:101970001192CB0100C0DC01FC01672F719177232C
:10198000E1F7329704C07C916D9370836291AE173A
:0A199000BF07C8F30895F894FFCFD5
:10199A0046696E64696E67206C6173743A200055FB
:1019AA003A200020443A2000204C3A200020523AA3
:1019BA0020004C6173742056616C7565733A20007F
:1019CA00526174696F733A200055442046693A207F
:1019DA0000205544204C613A2000204C5220466990
:1019EA003A2000204C52204C613A200044656C7425
:1019FA0061733A200055443A2000204C523A2000A4
:101A0A00416363756D756C6174696F6E733A20001A
:101A1A0055445F43543A2000204C525F43543A20C5
:101A2A0000204E4541525F43543A2000204641521D
:101A3A005F43543A20002D2D2D2D2D2D2D2D2D2D8A
:101A4A000A004649464F204C6576656C3A200046A6
:101A5A0049464F2044756D703A20002D005570207C
:101A6A00446174613A2000454E443A200055503A88
:101A7A000041204F46460A0041204F4E0A00444F7B
:101A8A00574E3A0043204F46460A0043204F4E0A1B
:101A9A00004C4546543A200044204F46460A00442A
:101AAA00204F4E0A0052494748543A0042204F46B6
:101ABA00460A0042204F4E0A004E4541523A00461D
:101ACA0041523A00414C4C204F46460A0045525278
:101ADA004F52210A004E4F4E450A0077616B6575D9
:041AEA0070210A005D
:00000001FF
