:100000004FC0CBC968C067C066C065C064C063C06C
:1000100062C061C038C95FC05EC05DC05CC0EEEE4A
:10002000EEEEEE888E8E8E8E8E8880EEEEEEEEEE0A
:10003000888E8E8E8E888E80EEEEEEEEEE8E888E20
:100040008E8E8E8880EEEEEEEEEE8E888E8E8E8810
:100050008E80EEEEEEEEEE8E8E888E8E8E8880EEA8
:10006000EEEEEEEE8E8E888E8E888E80EEEEEEEECA
:10007000EE8E8E8E888E8E8880EEEEEEEEEE8E8E7A
:100080008E888E888E80EEEEEEEEEE8E8E8E8E88D0
:100090008E8880EEEEEEEEEE8E8E8E8E88888E80CE
:1000A00011241FBECFE5D2E0DEBFCDBF10E0A0E639
:1000B000B0E0E8E5F6E102C005900D92A036B10788
:1000C000D9F721E0A0E6B0E001C01D92A430B2074C
:1000D000E1F782DABFCA94CF1092FE001092FF00BF
:1000E00010927B0010927A001092790010927800A2
:1000F00010926C0010926B001092730010927200BC
:100100001092030110920201109277001092760073
:10011000109275001092740010927D0010927C0075
:100120000895AF92BF92CF92DF92EF92FF920F931A
:100130001F93CF93DF930091FF00053008F4ADC10A
:100140008FEF800F803208F052C0602F70E01616DB
:1001500017060CF0A4C1EEE7F0E08EED90E07B0115
:100160009F01A70142525F4F01910B3078F0EC01E3
:10017000DC01A054B1091C911B3040F09096CC904A
:10018000AAE0AC1518F4A880AA1528F001968417E7
:10019000950751F786C1002309F485C1112309F49D
:1001A00084C1CC2009F483C1AA2009F482C1615022
:1001B000710977232CF1D701A258BF4FFB01E256FA
:1001C000FF4F11976C916B3068F040814B3050F0CD
:1001D000ED01C05CDF4F88818B3020F0A0969881C4
:1001E0009B30B8F43197A217B30759F70EC090E0CF
:1001F00080E040E060E0A12CC12C10E000E009C0EC
:1002000090E080E040E060E004C090E080E040E00A
:1002100060E0E02EF12C012F10E02C2D30E0B12C0D
:1002200070E050E0C82FD0E0E92FF0E0CB01841B54
:10023000950BDC01AA0FBB1FA80FB91F6D01CC0CD9
:10024000DD1CCC0CDD1CCC0CDD1CCC0CDD1CCC0C6A
:10025000DD1CAC0DBD1D8A0F9B1F640F751FD3D90C
:100260006B01C701801B910BAC01440F551F480F58
:10027000591FBA01660F771F62957295707F7627B6
:10028000607F7627460F571F840F951FB701600FB9
:10029000711FB9D98601061B170BCE018E1B9F0B50
:1002A000AC01440F551F480F591FBA01660F771F45
:1002B00062957295707F7627607F7627460F571F6D
:1002C000840F951FBE016E0F7F1F9DD9FB01C901D1
:1002D0008A199B09AC01440F551F480F591FBA01D9
:1002E000660F771F62957295707F7627607F7627FD
:1002F000460F571F840F951FB9016A0D7B1D83D9C7
:10030000CF01861B970BBC0120917A0030917B00B6
:10031000200F311F30937B0020937A00809178006A
:1003200090917900860F971F9093790080937800C1
:10033000223331053CF021E030E030936C00209313
:100340006B000EC02F3C3F4F3CF42FEF3FEF30933C
:100350006C0020936B0004C010926C0010926B0034
:10036000823391053CF081E090E09093730080939C
:1003700072000EC08F3C9F4F3CF48FEF9FEF909325
:1003800073008093720004C0109273001092720088
:1003900080916B0090916C00892B09F04FC0809187
:1003A000720090917300892B09F048C0C8014396F0
:1003B000879708F080C0CB014396879708F07DC0EF
:1003C0000115110569F46115710551F4809102015F
:1003D000909103010196909303018093020109C05B
:1003E00080917600909177000196909377008093AA
:1003F000760080910201909103010A970CF45FC08E
:10040000809176009091770002970CF45AC0012BEE
:1004100051F4672B09F057C081E090E0909375008C
:100420008093740059C0672B09F44FC082E090E0BC
:10043000909375008093740081E04EC0C80143968C
:10044000879708F044C0CB014396879708F041C0D6
:10045000012B59F4672B49F480910201909103011B
:100460000196909303018093020180910201909183
:1004700003010A9784F110926C0010926B001092A5
:1004800073001092720010927B0010927A0010920A
:1004900079001092780080E01FC080E01DC080E0ED
:1004A0001BC080E019C080E017C080E015C080E06C
:1004B00013C080E011C080E00FC080E00DC080E07C
:1004C0000BC080E009C081E007C081E005C080E08A
:1004D00003C080E001C080E0DF91CF911F910F91B8
:1004E000FF90EF90DF90CF90BF90AF9008958091F4
:1004F0007400909175008130910541F485E090E0A1
:1005000090937D0080937C0081E00895029741F4F0
:1005100086E090E090937D0080937C0081E00895D8
:1005200080916B0090916C008F3F2FEF920771F4D8
:100530002091720030917300232BB1F583E090E09D
:1005400090937D0080937C0081E008958130910537
:1005500079F42091720030917300232B09F054C07C
:1005600084E090E090937D0080937C0081E008958A
:100570000097D1F420917200309173002130310541
:1005800041F482E090E090937D0080937C0081E0D4
:1005900008952F3F3F4F09F065C081E090E09093B0
:1005A0007D0080937C0008958F3F2FEF920761F5C7
:1005B0008091720090917300019709F057C02091CB
:1005C0007A0030917B0033231CF431952195310959
:1005D000809178009091790099231CF491958195F0
:1005E00091098217930744F483E090E090937D0093
:1005F00080937C0081E0089582E090E090937D00FC
:1006000080937C0081E008958130910559F58091B7
:10061000720090917300019609F055C020917A0004
:1006200030917B0033231CF4319521953109809161
:1006300078009091790099231CF491958195910906
:100640008217930744F484E090E090937D008093B8
:100650007C0081E0089581E090E090937D0080939C
:100660007C0008958F3F2FEF920759F5809172001B
:1006700090917300019609F051C020917A00309159
:100680007B0033231CF4319521953109809178004A
:100690009091790099231CF4919581959109821785
:1006A000930744F483E090E090937D0080937C0076
:1006B00081E0089581E090E090937D0080937C003C
:1006C0000895019769F580917200909173000197E8
:1006D00049F520917A0030917B0033231CF4319549
:1006E00021953109809178009091790099231CF42B
:1006F0009195819591098217930744F484E090E0E5
:1007000090937D0080937C0081E0089582E090E0EA
:1007100090937D0080937C0081E0089580E00895AF
:1007200080E0089580E00895CF93C82F48D482E7F1
:100730006AD48C2F68D44BD481E0CF910895CF93A5
:10074000DF931F92CDB7DEB769839E012F5F3F4FC6
:1007500041E0682F82E7F1D481E00F90DF91CF91E3
:100760000895682F80EAEBDF91E0811101C090E0ED
:10077000892F0895682F81EAE2DF91E0811101C09D
:1007800090E0892F0895682F89E8D9DF91E08111E1
:1007900001C090E0892F0895682F8BE8D0DF91E0A9
:1007A000811101C090E0892F0895CF93C92F682F40
:1007B00084E8C5DF882341F06C2F85E8C0DF91E035
:1007C000811103C090E001C090E0892FCF9108957E
:1007D000CF93C92F682F86E8B2DF882341F06C2FB2
:1007E00087E8ADDF91E0811103C090E001C090E0A7
:1007F000892FCF9108951F93CF93DF93182FEB018B
:1008000093DF882339F09E0141E0612F82E7D2D443
:1008100081E001C080E0DF91CF911F910895CF93D7
:10082000DF931F92CDB7DEB7BE016F5F7F4F80E8C9
:10083000E2DF882311F0898101C08FEF0F90DF91F3
:10084000CF910895CF93DF93C82FD62FE8DF8F3F46
:1008500049F1D170C730B8F4DD2351F041E050E0E8
:100860009A0102C0220F331FCA95E2F7822B12C0F1
:1008700041E050E09A0102C0220F331FCA95E2F70F
:100880002095822307C0C73029F4DD2311F08FE7BC
:1008900001C080E0682F80E852DF91E0811103C041
:1008A00090E001C090E0892FDF91CF91089561E041
:1008B00080E0C8DF91E0811101C090E0892F0895A8
:1008C0001F93CF93DF931F92CDB7DEB7182FBE01D2
:1008D0006F5F7F4F83EA8FDF882381F0612F637022
:1008E0006295660F607E89818F79682B698383EAC0
:1008F00026DF91E0811103C090E001C090E0892FD4
:100900000F90DF91CF911F9108951F93CF93DF93A5
:100910001F92CDB7DEB7182FBE016F5F7F4F83EAFE
:100920006ADF882381F0612F6370660F660F660FA0
:100930008981877E682B698383EA01DF91E08111D9
:1009400003C090E001C090E0892F0F90DF91CF911C
:100950001F9108951F93CF93DF931F92CDB7DEB7FA
:10096000182FBE016F5F7F4F83EA45DF882361F058
:1009700017706981687F612B698383EAE0DE91E00B
:10098000811103C090E001C090E0892F0F90DF91AA
:10099000CF911F9108951F93CF93DF931F92CDB7EF
:1009A000DEB7182FBE016F5F7F4F8BEA24DF8823ED
:1009B00071F0612F6170660F89818D7F682B69836B
:1009C0008BEABDDE91E0811103C090E001C090E0B0
:1009D000892F0F90DF91CF911F9108951F93CF938F
:1009E000DF931F92CDB7DEB7182FBE016F5F7F4F29
:1009F00080E901DF882379F0612F63706295607F61
:100A000089818F7C682B698380E999DE91E081116F
:100A100003C090E001C090E0892F0F90DF91CF914B
:100A20001F9108951F93CF93DF931F92CDB7DEB729
:100A3000182FBE016F5F7F4F8BEADDDE882359F0F0
:100A4000698110FB60F969838BEA79DE91E081119D
:100A500003C090E001C090E0892F0F90DF91CF910B
:100A60001F910895CF93C82F37DB6FEF83E867DEC0
:100A7000882369F169E88EE862DE882351F183E01A
:100A8000ADDF882341F1CC2329F081E084DF81119F
:100A900005C023C080E07FDF882309F181E0C2DF49
:100AA0008823F9F004DF8823F1F061E083E0CADEF7
:100AB0008823D9F061E082E0C5DE8823C1F061E0DF
:100AC00086E0C0DE91E0811113C090E011C090E09B
:100AD0000FC090E00DC090E00BC090E009C090E026
:100AE00007C090E005C090E003C090E001C090E036
:100AF000892FCF910895CF93DF931F92CDB7DEB7A3
:100B0000BE016F5F7F4F8FEA76DE882331F09981D7
:100B100081E090FD03C080E001C08FEF0F90DF9176
:100B2000CF9108951F93CF93DF931F92CDB7DEB778
:100B3000182FBE016F5F7F4F8FE85DDE882379F04D
:100B4000612F6370660F660F8981837F682B6983CD
:100B50008FE8F5DD91E0811103C090E001C090E0E5
:100B6000892F0F90DF91CF911F9108951F93CF93FD
:100B7000DF931F92CDB7DEB7182FBE016F5F7F4F97
:100B80008FE839DE882379F01295110F110F107C50
:100B900069816F73612B69838FE8D1DD91E08111E9
:100BA00003C090E001C090E0892F0F90DF91CF91BA
:100BB0001F9108951F93CF93DF931F92CDB7DEB798
:100BC000182FBE016F5F7F4F8FE815DE882361F01D
:100BD000137069816C7F612B69838FE8B0DD91E0D0
:100BE000811103C090E001C090E0892F0F90DF9148
:100BF000CF911F910895CF93DF931F92CDB7DEB7AA
:100C000097D29E012F5F3F4F41E062E982E7D2D247
:100C10008981882309F4B0C08B3A19F08C3909F026
:100C2000ADC060E087E00EDE882309F4A9C06BED5B
:100C300081E885DD882309F4A5C066EF83E87FDDC0
:100C4000882309F4A1C067E88EE879DD882309F4D8
:100C50009DC060E08DE973DD882309F499C060E0F0
:100C60008EE96DDD882309F495C060E68DE867DDC7
:100C7000882309F491C080E079DF882309F48EC0CD
:100C800082E050DF882309F48BC081E093DF882362
:100C900009F488C080E077DD882309F485C082E309
:100CA0007BDD882309F482C08FEF9FEF7EDD8823F0
:100CB00009F47EC080E090E08BDD882309F47AC0DF
:100CC00061E18CE83CDD882309F476C061E080E9CD
:100CD00036DD882309F472C060E08FE930DD8823B7
:100CE00009F46EC088E23DDD882309F46BC08EE113
:100CF00041DD882309F468C060E482EA20DD8823AE
:100D000009F464C082E0DCDD882309F461C080E07E
:100D1000FCDD882309F45EC081E01CDE882309F431
:100D20005BC060E084EA0BDD882309F457C060E013
:100D300085EA05DD882309F453C060E087EAFFDC1B
:100D4000882309F44FC060E089EAF9DC882309F4BC
:100D50004BC069EC86EAF3DC882309F447C060E005
:100D60008AEAEDDC882309F443C080E014DE91E0D8
:100D700081113FC090E03DC090E03BC090E039C0A1
:100D800090E037C090E035C090E033C090E031C0D3
:100D900090E02FC090E02DC090E02BC090E029C0E3
:100DA00090E027C090E025C090E023C090E021C0F3
:100DB00090E01FC090E01DC090E01BC090E019C003
:100DC00090E017C090E015C090E013C090E011C013
:100DD00090E00FC090E00DC090E00BC090E009C023
:100DE00090E007C090E005C090E003C090E001C033
:100DF00090E0892F0F90DF91CF9108959B01682F8C
:100E000082E7D8D181E090E008954F925F926F928F
:100E10007F928F929F92AF92BF92CF92DF92EF928A
:100E2000FF920F931F93CF93DF93CDB7DEB7C258D6
:100E3000D1090FB6F894DEBF0FBECDBF19825BDEBD
:100E4000882309F499C0EBDC817409F498C08E0101
:100E50000E571F4FA02EB12E0F2EFEEFCF2EF0E01B
:100E6000DF2EF02D0F2EFFEFEF2EF0E0FF2EF02DF6
:100E7000912C812C8BE49DE10197F1F700C00000DB
:100E80006A2D7B2D8FEAB7DC882309F47BC0D8015B
:100E90008C9180FF62C0BE016F5F7F4F8EEAABDC3A
:100EA000882309F472C04981442321F350E0440FA0
:100EB000551F440F551FBE016E5F7F4F8CEF9EDFA5
:100EC000898190E0880F991F880F991F84309105C0
:100ED0008CF218161906CCF5F6014081D7016C90FA
:100EE000FE013596742E292D382D641AA72DB0E0F9
:100EF000AD0142585F4F2A01AF0143505109DA0159
:100F00004C91D2014C93AF0142505109DA014C91FE
:100F1000D20190964C93B201605C7F4FAF0141507B
:100F20005109DA014C91DB014C93408190964C932E
:100F30007394462D470D2C5F3F4F34962817390781
:100F4000ACF2F6017082D7014C93EBD88111CFDA65
:100F5000F6011082D7011C928DCFEBE4FDE13197B1
:100F6000F1F700C00000C3DA00917C0010917D0011
:100F7000B3D8802F912F0BC080E090E008C080E0B4
:100F800090E005C08FEF90E002C08FEF90E0CE5769
:100F9000DF4F0FB6F894DEBF0FBECDBFDF91CF910C
:100FA0001F910F91FF90EF90DF90CF90BF90AF9087
:100FB0009F908F907F906F905F904F900895C4980E
:100FC00000000000000000000000C3980895000029
:100FD0000000000000000000000000000000000011
:100FE0000000C39A00000000000000000000C49A46
:100FF00000000000000000000000000000000000F1
:1010000000000000089527E030E090E0AC01022EDF
:1010100002C0559547950A94E2F740FF02C0C49A72
:1010200001C0C498000000000000000000000000A3
:101030000000000000000000C39A00000000000053
:101040000000000000000000000000000000C39845
:1010500021503109D8F6C49ABC9800000000000065
:101060000000000000000000000000000000C39A23
:1010700086B3000000000000000000000000000037
:10108000000000000000C398BC9A000000000000AF
:101090000000000000000000000000000000829539
:1010A0008F7091E08927817090E00895C49ABC9870
:1010B00028E030E040E000000000000000000000F8
:1010C00000000000000000000000C39A440FB49923
:1010D000416000000000000000000000000000006F
:1010E000000000000000C39821503109211531058E
:1010F00011F7BC9A892B11F0C49A01C0C498000062
:1011000000000000000000000000000000000000DF
:101110000000C39A00000000000000000000000072
:101120000000000000000000C398C49A842F0895B6
:10113000BC9ABB9AC49AC39A0895FF920F931F93C7
:10114000CF93DF93C62F142FF22E032FC4980000E5
:101150000000000000000000C39855DF8C2F53DF13
:10116000112331F0CF2DD02F89914DDF1150E1F7B0
:10117000C498000000000000000000000000000013
:10118000000000000000C39A000000000000000002
:101190000000C49A000000000000000000000000F1
:1011A0000000000000000000DF91CF911F910F911F
:1011B000FF900895CF92DF92EF92FF920F931F93CB
:1011C000CF93DF93C82FD62FE22EF32E042F10E0FB
:1011D000C49800000000000000000000C39813DF66
:1011E0008D2F11DF00000000000000000000000053
:1011F0000000000000000000C39AC4980000000036
:10120000000000000000C3988C2F8160FCDEE80124
:101210002197012B99F00E2D1F2DEE24E394F12C34
:10122000C12CD12C8E2D9F2D209711F08C2D9D2D12
:101230003DDFF80181938F012197A0F7C49800004A
:10124000000000000000000000000000000000009E
:101250000000C39A00000000000000000000C49AD3
:10126000000000000000000000000000000000007E
:1012700000000000DF91CF911F910F91FF90EF9040
:10128000DF90CF9008951F920F920FB60F92112406
:101290002F938F939F93EF93FF93809163008D30F3
:1012A000C8F580916400883068F5809162002091D3
:1012B000630090E0FC01EE0FFF1FE80FF91FEE0F37
:1012C000FF1FEE0FFF1FE80FF91FE20FF11DE25E97
:1012D000FF4F84912091640090E002C0880F991F15
:1012E0002A95E2F7881F8827881F813011F4C09A59
:1012F00003C0811101C0C098809164008F5F80930A
:10130000640010C010926400809163008F5F80932E
:10131000630008C01092630081E08093610083B78E
:101320008E7F83BFFF91EF919F918F912F910F90AF
:101330000FBE0F901F9018958AB582608ABD89B73D
:10134000806189BF86EA89BD83B7816083BF789455
:10135000B89AC09A81E0809360000895CF93C82F17
:1013600080916000811101C0E7DFC093620085E0D9
:1013700090E023B7216023BF209161002223E1F395
:1013800010926100E6EAF3E03197F1F700C0000047
:101390000197009771F7CF9108951F920F920FB6A2
:1013A0000F9211248F9381E080936A008F910F90A8
:1013B0000FBE0F901F901895B99A08958BB780644F
:1013C0008BBF85B7826085BF7894089510926900BD
:1013D00010926800109267001092660010926500EB
:1013E00081E090E0BBDF83E090E0B8DF85E090E053
:1013F000B5DF87E090E0B2DF89E090E0AFDF0895ED
:10140000811104C08BB780648BBF08958BB78F7B2D
:101410008BBF0895CF93DF939B012150310928386A
:10142000334108F046C0823030F0E82FF0E01E165D
:101430001F069CF03EC0C19A6115710561F080E005
:1014400090E0C9EFD0E02197F1F700C000000196CD
:1014500086179707B1F7C1982CC07695679540E03D
:1014600050E09B01B0E0A0E0C19A61157105F9F070
:101470008B2F9A2FC9EFD0E02197F1F700C0000021
:10148000019682179307B1F7C1988B2F9A2FC9EF56
:10149000D0E02197F1F700C0000001962817390726
:1014A000B1F74F5F5F4F4E175F07F4F202C0C1986C
:1014B000F8CFDF91CF9108951EDB882309F48BC00C
:1014C000A4DC8430910569F144F48230910509F47B
:1014D0005AC074F40197F1F17AC08630910509F48D
:1014E0006BC00CF478C08F3F910509F46BC06FC0DE
:1014F00080916900882351F081E090E02FDF66E958
:1015000070E081E087DF10926900089580E090E04C
:1015100025DF66E970E081E07DDF81E0809369008E
:10152000089580916700882351F085E090E016DFF0
:1015300066E970E083E06EDF10926700089584E052
:1015400090E00CDF66E970E083E064DF81E0809387
:101550006700089580916600882351F087E090E04D
:10156000FDDE66E970E084E055DF109266000895C4
:1015700086E090E0F3DE66E970E084E04BDF81E036
:1015800080936600089580916800882351F083E07D
:1015900090E0E4DE66E970E083E03CDF10926800F2
:1015A000089582E090E0DADE66E970E083E032DF01
:1015B00081E080936800089509DF66E970E085E0C6
:1015C00029DF089564EF71E081E024DF089564EF7E
:1015D00071E081E01FDF0895EFDE66E970E084E0EE
:1015E00019DFAADEF3DEEADE06DB81E03BDA80917A
:1015F0006A008823E1F381E003DF5EDF10926A0076
:1016000080E0FEDEF4CF97FB072E16F4009406D0A0
:1016100077FD08D00BD007FC05D03EF4909581955E
:101620009F4F0895709561957F4F0895AA1BBB1B2E
:1016300051E107C0AA1FBB1FA617B70710F0A61BD2
:10164000B70B881F991F5A95A9F780959095BC01F3
:08165000CD010895F894FFCFCD
:00000001FF
